{
  "_format": "hh3-artifact-1",
  "contractName": "Like",
  "sourceName": "contracts/Like.sol",
  "abi": [
    {
      "inputs": [
        {
          "internalType": "address",
          "name": "bookAddress",
          "type": "address"
        },
        {
          "internalType": "address",
          "name": "reviewAddress",
          "type": "address"
        },
        {
          "internalType": "uint256",
          "name": "share",
          "type": "uint256"
        }
      ],
      "stateMutability": "nonpayable",
      "type": "constructor"
    },
    {
      "inputs": [
        {
          "internalType": "address",
          "name": "spender",
          "type": "address"
        },
        {
          "internalType": "uint256",
          "name": "allowance",
          "type": "uint256"
        },
        {
          "internalType": "uint256",
          "name": "needed",
          "type": "uint256"
        }
      ],
      "name": "ERC20InsufficientAllowance",
      "type": "error"
    },
    {
      "inputs": [
        {
          "internalType": "address",
          "name": "sender",
          "type": "address"
        },
        {
          "internalType": "uint256",
          "name": "balance",
          "type": "uint256"
        },
        {
          "internalType": "uint256",
          "name": "needed",
          "type": "uint256"
        }
      ],
      "name": "ERC20InsufficientBalance",
      "type": "error"
    },
    {
      "inputs": [
        {
          "internalType": "address",
          "name": "approver",
          "type": "address"
        }
      ],
      "name": "ERC20InvalidApprover",
      "type": "error"
    },
    {
      "inputs": [
        {
          "internalType": "address",
          "name": "receiver",
          "type": "address"
        }
      ],
      "name": "ERC20InvalidReceiver",
      "type": "error"
    },
    {
      "inputs": [
        {
          "internalType": "address",
          "name": "sender",
          "type": "address"
        }
      ],
      "name": "ERC20InvalidSender",
      "type": "error"
    },
    {
      "inputs": [
        {
          "internalType": "address",
          "name": "spender",
          "type": "address"
        }
      ],
      "name": "ERC20InvalidSpender",
      "type": "error"
    },
    {
      "anonymous": false,
      "inputs": [
        {
          "indexed": true,
          "internalType": "address",
          "name": "owner",
          "type": "address"
        },
        {
          "indexed": true,
          "internalType": "address",
          "name": "spender",
          "type": "address"
        },
        {
          "indexed": false,
          "internalType": "uint256",
          "name": "value",
          "type": "uint256"
        }
      ],
      "name": "Approval",
      "type": "event"
    },
    {
      "anonymous": false,
      "inputs": [
        {
          "indexed": false,
          "internalType": "address",
          "name": "from",
          "type": "address"
        },
        {
          "indexed": false,
          "internalType": "uint256",
          "name": "bookId",
          "type": "uint256"
        },
        {
          "indexed": false,
          "internalType": "uint256",
          "name": "reviewId",
          "type": "uint256"
        },
        {
          "indexed": false,
          "internalType": "uint256",
          "name": "amount",
          "type": "uint256"
        }
      ],
      "name": "LikeDistributed",
      "type": "event"
    },
    {
      "anonymous": false,
      "inputs": [
        {
          "indexed": true,
          "internalType": "address",
          "name": "from",
          "type": "address"
        },
        {
          "indexed": true,
          "internalType": "address",
          "name": "to",
          "type": "address"
        },
        {
          "indexed": false,
          "internalType": "uint256",
          "name": "value",
          "type": "uint256"
        }
      ],
      "name": "Transfer",
      "type": "event"
    },
    {
      "inputs": [
        {
          "internalType": "address",
          "name": "owner",
          "type": "address"
        },
        {
          "internalType": "address",
          "name": "spender",
          "type": "address"
        }
      ],
      "name": "allowance",
      "outputs": [
        {
          "internalType": "uint256",
          "name": "",
          "type": "uint256"
        }
      ],
      "stateMutability": "view",
      "type": "function"
    },
    {
      "inputs": [
        {
          "internalType": "address",
          "name": "spender",
          "type": "address"
        },
        {
          "internalType": "uint256",
          "name": "value",
          "type": "uint256"
        }
      ],
      "name": "approve",
      "outputs": [
        {
          "internalType": "bool",
          "name": "",
          "type": "bool"
        }
      ],
      "stateMutability": "nonpayable",
      "type": "function"
    },
    {
      "inputs": [
        {
          "internalType": "address",
          "name": "account",
          "type": "address"
        }
      ],
      "name": "balanceOf",
      "outputs": [
        {
          "internalType": "uint256",
          "name": "",
          "type": "uint256"
        }
      ],
      "stateMutability": "view",
      "type": "function"
    },
    {
      "inputs": [
        {
          "internalType": "uint256[]",
          "name": "bookIds",
          "type": "uint256[]"
        },
        {
          "internalType": "uint256[]",
          "name": "reviewIds",
          "type": "uint256[]"
        },
        {
          "internalType": "uint256[]",
          "name": "amounts",
          "type": "uint256[]"
        }
      ],
      "name": "batchDistribute",
      "outputs": [],
      "stateMutability": "nonpayable",
      "type": "function"
    },
    {
      "inputs": [],
      "name": "decimals",
      "outputs": [
        {
          "internalType": "uint8",
          "name": "",
          "type": "uint8"
        }
      ],
      "stateMutability": "view",
      "type": "function"
    },
    {
      "inputs": [
        {
          "internalType": "uint256",
          "name": "bookId",
          "type": "uint256"
        },
        {
          "internalType": "uint256",
          "name": "reviewId",
          "type": "uint256"
        },
        {
          "internalType": "uint256",
          "name": "amount",
          "type": "uint256"
        }
      ],
      "name": "distribute",
      "outputs": [],
      "stateMutability": "nonpayable",
      "type": "function"
    },
    {
      "inputs": [
        {
          "internalType": "address",
          "name": "to",
          "type": "address"
        },
        {
          "internalType": "uint256",
          "name": "amount",
          "type": "uint256"
        }
      ],
      "name": "mint",
      "outputs": [],
      "stateMutability": "nonpayable",
      "type": "function"
    },
    {
      "inputs": [],
      "name": "name",
      "outputs": [
        {
          "internalType": "string",
          "name": "",
          "type": "string"
        }
      ],
      "stateMutability": "view",
      "type": "function"
    },
    {
      "inputs": [],
      "name": "symbol",
      "outputs": [
        {
          "internalType": "string",
          "name": "",
          "type": "string"
        }
      ],
      "stateMutability": "view",
      "type": "function"
    },
    {
      "inputs": [],
      "name": "totalSupply",
      "outputs": [
        {
          "internalType": "uint256",
          "name": "",
          "type": "uint256"
        }
      ],
      "stateMutability": "view",
      "type": "function"
    },
    {
      "inputs": [
        {
          "internalType": "address",
          "name": "to",
          "type": "address"
        },
        {
          "internalType": "uint256",
          "name": "value",
          "type": "uint256"
        }
      ],
      "name": "transfer",
      "outputs": [
        {
          "internalType": "bool",
          "name": "",
          "type": "bool"
        }
      ],
      "stateMutability": "nonpayable",
      "type": "function"
    },
    {
      "inputs": [
        {
          "internalType": "address",
          "name": "from",
          "type": "address"
        },
        {
          "internalType": "address",
          "name": "to",
          "type": "address"
        },
        {
          "internalType": "uint256",
          "name": "value",
          "type": "uint256"
        }
      ],
      "name": "transferFrom",
      "outputs": [
        {
          "internalType": "bool",
          "name": "",
          "type": "bool"
        }
      ],
      "stateMutability": "nonpayable",
      "type": "function"
    }
  ],
  "bytecode": "0x608060405234801561000f575f5ffd5b50604051610e58380380610e5883398101604081905261002e916100df565b604051806040016040528060098152602001682634b5b2aa37b5b2b760b91b815250604051806040016040528060048152602001634c494b4560e01b815250816003908161007c91906101b0565b50600461008982826101b0565b5050600580546001600160a01b039586166001600160a01b03199182161790915560068054949095169316929092179092555060075561026a565b80516001600160a01b03811681146100da575f5ffd5b919050565b5f5f5f606084860312156100f1575f5ffd5b6100fa846100c4565b9250610108602085016100c4565b9150604084015190509250925092565b634e487b7160e01b5f52604160045260245ffd5b600181811c9082168061014057607f821691505b60208210810361015e57634e487b7160e01b5f52602260045260245ffd5b50919050565b601f8211156101ab57805f5260205f20601f840160051c810160208510156101895750805b601f840160051c820191505b818110156101a8575f8155600101610195565b50505b505050565b81516001600160401b038111156101c9576101c9610118565b6101dd816101d7845461012c565b84610164565b6020601f82116001811461020f575f83156101f85750848201515b5f19600385901b1c1916600184901b1784556101a8565b5f84815260208120601f198516915b8281101561023e578785015182556020948501946001909201910161021e565b508482101561025b57868401515f19600387901b60f8161c191681555b50505050600190811b01905550565b610be1806102775f395ff3fe608060405234801561000f575f5ffd5b50600436106100b1575f3560e01c806340c10f191161006e57806340c10f191461013f57806370a082311461015257806395d89b411461017a578063a9059cbb14610182578063d2de6ec514610195578063dd62ed3e146101a8575f5ffd5b806306fdde03146100b5578063095ea7b3146100d357806318160ddd146100f657806323b872dd146101085780632eacf76e1461011b578063313ce56714610130575b5f5ffd5b6100bd6101e0565b6040516100ca91906108b7565b60405180910390f35b6100e66100e1366004610903565b610270565b60405190151581526020016100ca565b6002545b6040519081526020016100ca565b6100e661011636600461092d565b610289565b61012e6101293660046109b3565b6102ac565b005b604051601281526020016100ca565b61012e61014d366004610903565b610371565b6100fa610160366004610a52565b6001600160a01b03165f9081526020819052604090205490565b6100bd61037f565b6100e6610190366004610903565b61038e565b61012e6101a3366004610a74565b61039b565b6100fa6101b6366004610a9d565b6001600160a01b039182165f90815260016020908152604080832093909416825291909152205490565b6060600380546101ef90610ad4565b80601f016020809104026020016040519081016040528092919081815260200182805461021b90610ad4565b80156102665780601f1061023d57610100808354040283529160200191610266565b820191905f5260205f20905b81548152906001019060200180831161024957829003601f168201915b5050505050905090565b5f3361027d8185856105a0565b60019150505b92915050565b5f336102968582856105b2565b6102a185858561062e565b506001949350505050565b84831480156102ba57508481145b6103035760405162461bcd60e51b8152602060048201526015602482015274082e4e4c2f240d8cadccee8d040dad2e6dac2e8c6d605b1b60448201526064015b60405180910390fd5b5f5b858110156103685761036087878381811061032257610322610b0c565b9050602002013586868481811061033b5761033b610b0c565b9050602002013585858581811061035457610354610b0c565b9050602002013561039b565b600101610305565b50505050505050565b61037b828261068b565b5050565b6060600480546101ef90610ad4565b5f3361027d81858561062e565b6005546040516331a9108f60e11b8152600481018590525f916001600160a01b031690636352211e90602401602060405180830381865afa1580156103e2573d5f5f3e3d5ffd5b505050506040513d601f19601f820116820180604052508101906104069190610b20565b90506001600160a01b0381166104545760405162461bcd60e51b8152602060048201526013602482015272109bdbdac8191bd95cc81b9bdd08195e1a5cdd606a1b60448201526064016102fa565b6006546040516331a9108f60e11b8152600481018590525f916001600160a01b031690636352211e90602401602060405180830381865afa15801561049b573d5f5f3e3d5ffd5b505050506040513d601f19601f820116820180604052508101906104bf9190610b20565b90506001600160a01b03811661050f5760405162461bcd60e51b815260206004820152601560248201527414995d9a595dc8191bd95cc81b9bdd08195e1a5cdd605a1b60448201526064016102fa565b5f6064600754856105209190610b4f565b61052a9190610b66565b90505f6105378286610b85565b905061054433858461062e565b61054f33848361062e565b6040805133815260208101899052908101879052606081018690527faab61aa9419ce5ed131c9c073f2ea822be2be404214eb511bc9dca243f094c229060800160405180910390a150505050505050565b6105ad83838360016106bf565b505050565b6001600160a01b038381165f908152600160209081526040808320938616835292905220545f19811015610628578181101561061a57604051637dc7a0d960e11b81526001600160a01b038416600482015260248101829052604481018390526064016102fa565b61062884848484035f6106bf565b50505050565b6001600160a01b03831661065757604051634b637e8f60e11b81525f60048201526024016102fa565b6001600160a01b0382166106805760405163ec442f0560e01b81525f60048201526024016102fa565b6105ad838383610791565b6001600160a01b0382166106b45760405163ec442f0560e01b81525f60048201526024016102fa565b61037b5f8383610791565b6001600160a01b0384166106e85760405163e602df0560e01b81525f60048201526024016102fa565b6001600160a01b03831661071157604051634a1406b160e11b81525f60048201526024016102fa565b6001600160a01b038085165f908152600160209081526040808320938716835292905220829055801561062857826001600160a01b0316846001600160a01b03167f8c5be1e5ebec7d5bd14f71427d1e84f3dd0314c0f7b2291e5b200ac8c7c3b9258460405161078391815260200190565b60405180910390a350505050565b6001600160a01b0383166107bb578060025f8282546107b09190610b98565b9091555061082b9050565b6001600160a01b0383165f908152602081905260409020548181101561080d5760405163391434e360e21b81526001600160a01b038516600482015260248101829052604481018390526064016102fa565b6001600160a01b0384165f9081526020819052604090209082900390555b6001600160a01b03821661084757600280548290039055610865565b6001600160a01b0382165f9081526020819052604090208054820190555b816001600160a01b0316836001600160a01b03167fddf252ad1be2c89b69c2b068fc378daa952ba7f163c4a11628f55a4df523b3ef836040516108aa91815260200190565b60405180910390a3505050565b602081525f82518060208401528060208501604085015e5f604082850101526040601f19601f83011684010191505092915050565b6001600160a01b0381168114610900575f5ffd5b50565b5f5f60408385031215610914575f5ffd5b823561091f816108ec565b946020939093013593505050565b5f5f5f6060848603121561093f575f5ffd5b833561094a816108ec565b9250602084013561095a816108ec565b929592945050506040919091013590565b5f5f83601f84011261097b575f5ffd5b50813567ffffffffffffffff811115610992575f5ffd5b6020830191508360208260051b85010111156109ac575f5ffd5b9250929050565b5f5f5f5f5f5f606087890312156109c8575f5ffd5b863567ffffffffffffffff8111156109de575f5ffd5b6109ea89828a0161096b565b909750955050602087013567ffffffffffffffff811115610a09575f5ffd5b610a1589828a0161096b565b909550935050604087013567ffffffffffffffff811115610a34575f5ffd5b610a4089828a0161096b565b979a9699509497509295939492505050565b5f60208284031215610a62575f5ffd5b8135610a6d816108ec565b9392505050565b5f5f5f60608486031215610a86575f5ffd5b505081359360208301359350604090920135919050565b5f5f60408385031215610aae575f5ffd5b8235610ab9816108ec565b91506020830135610ac9816108ec565b809150509250929050565b600181811c90821680610ae857607f821691505b602082108103610b0657634e487b7160e01b5f52602260045260245ffd5b50919050565b634e487b7160e01b5f52603260045260245ffd5b5f60208284031215610b30575f5ffd5b8151610a6d816108ec565b634e487b7160e01b5f52601160045260245ffd5b808202811582820484141761028357610283610b3b565b5f82610b8057634e487b7160e01b5f52601260045260245ffd5b500490565b8181038181111561028357610283610b3b565b8082018082111561028357610283610b3b56fea2646970667358221220930151a2830cc1f0702296466836614bd6639be018b9b3f2abbb496259f3826264736f6c634300081c0033",
  "linkReferences": {},
  "deployedLinkReferences": {},
  "immutableReferences": {},
  "inputSourceName": "project/contracts/Like.sol",
  "buildInfoId": "solc-0_8_28-a937cb5f7376da6e9e70d62f412c925b2dc773b4"
}