{
  "_format": "hh3-artifact-1",
  "contractName": "Review",
  "sourceName": "contracts/Review.sol",
  "abi": [
    {
      "inputs": [
        {
          "internalType": "address",
          "name": "bookAddress",
          "type": "address"
        }
      ],
      "stateMutability": "nonpayable",
      "type": "constructor"
    },
    {
      "inputs": [
        {
          "internalType": "address",
          "name": "sender",
          "type": "address"
        },
        {
          "internalType": "uint256",
          "name": "tokenId",
          "type": "uint256"
        },
        {
          "internalType": "address",
          "name": "owner",
          "type": "address"
        }
      ],
      "name": "ERC721IncorrectOwner",
      "type": "error"
    },
    {
      "inputs": [
        {
          "internalType": "address",
          "name": "operator",
          "type": "address"
        },
        {
          "internalType": "uint256",
          "name": "tokenId",
          "type": "uint256"
        }
      ],
      "name": "ERC721InsufficientApproval",
      "type": "error"
    },
    {
      "inputs": [
        {
          "internalType": "address",
          "name": "approver",
          "type": "address"
        }
      ],
      "name": "ERC721InvalidApprover",
      "type": "error"
    },
    {
      "inputs": [
        {
          "internalType": "address",
          "name": "operator",
          "type": "address"
        }
      ],
      "name": "ERC721InvalidOperator",
      "type": "error"
    },
    {
      "inputs": [
        {
          "internalType": "address",
          "name": "owner",
          "type": "address"
        }
      ],
      "name": "ERC721InvalidOwner",
      "type": "error"
    },
    {
      "inputs": [
        {
          "internalType": "address",
          "name": "receiver",
          "type": "address"
        }
      ],
      "name": "ERC721InvalidReceiver",
      "type": "error"
    },
    {
      "inputs": [
        {
          "internalType": "address",
          "name": "sender",
          "type": "address"
        }
      ],
      "name": "ERC721InvalidSender",
      "type": "error"
    },
    {
      "inputs": [
        {
          "internalType": "uint256",
          "name": "tokenId",
          "type": "uint256"
        }
      ],
      "name": "ERC721NonexistentToken",
      "type": "error"
    },
    {
      "anonymous": false,
      "inputs": [
        {
          "indexed": true,
          "internalType": "address",
          "name": "owner",
          "type": "address"
        },
        {
          "indexed": true,
          "internalType": "address",
          "name": "approved",
          "type": "address"
        },
        {
          "indexed": true,
          "internalType": "uint256",
          "name": "tokenId",
          "type": "uint256"
        }
      ],
      "name": "Approval",
      "type": "event"
    },
    {
      "anonymous": false,
      "inputs": [
        {
          "indexed": true,
          "internalType": "address",
          "name": "owner",
          "type": "address"
        },
        {
          "indexed": true,
          "internalType": "address",
          "name": "operator",
          "type": "address"
        },
        {
          "indexed": false,
          "internalType": "bool",
          "name": "approved",
          "type": "bool"
        }
      ],
      "name": "ApprovalForAll",
      "type": "event"
    },
    {
      "anonymous": false,
      "inputs": [
        {
          "indexed": false,
          "internalType": "uint256",
          "name": "_fromTokenId",
          "type": "uint256"
        },
        {
          "indexed": false,
          "internalType": "uint256",
          "name": "_toTokenId",
          "type": "uint256"
        }
      ],
      "name": "BatchMetadataUpdate",
      "type": "event"
    },
    {
      "anonymous": false,
      "inputs": [
        {
          "indexed": false,
          "internalType": "uint256",
          "name": "_tokenId",
          "type": "uint256"
        }
      ],
      "name": "MetadataUpdate",
      "type": "event"
    },
    {
      "anonymous": false,
      "inputs": [
        {
          "indexed": true,
          "internalType": "address",
          "name": "from",
          "type": "address"
        },
        {
          "indexed": true,
          "internalType": "address",
          "name": "to",
          "type": "address"
        },
        {
          "indexed": true,
          "internalType": "uint256",
          "name": "tokenId",
          "type": "uint256"
        }
      ],
      "name": "Transfer",
      "type": "event"
    },
    {
      "inputs": [
        {
          "internalType": "address",
          "name": "to",
          "type": "address"
        },
        {
          "internalType": "uint256",
          "name": "tokenId",
          "type": "uint256"
        }
      ],
      "name": "approve",
      "outputs": [],
      "stateMutability": "nonpayable",
      "type": "function"
    },
    {
      "inputs": [
        {
          "internalType": "address",
          "name": "owner",
          "type": "address"
        }
      ],
      "name": "balanceOf",
      "outputs": [
        {
          "internalType": "uint256",
          "name": "",
          "type": "uint256"
        }
      ],
      "stateMutability": "view",
      "type": "function"
    },
    {
      "inputs": [
        {
          "internalType": "uint256",
          "name": "tokenId",
          "type": "uint256"
        }
      ],
      "name": "getApproved",
      "outputs": [
        {
          "internalType": "address",
          "name": "",
          "type": "address"
        }
      ],
      "stateMutability": "view",
      "type": "function"
    },
    {
      "inputs": [
        {
          "internalType": "address",
          "name": "owner",
          "type": "address"
        },
        {
          "internalType": "address",
          "name": "operator",
          "type": "address"
        }
      ],
      "name": "isApprovedForAll",
      "outputs": [
        {
          "internalType": "bool",
          "name": "",
          "type": "bool"
        }
      ],
      "stateMutability": "view",
      "type": "function"
    },
    {
      "inputs": [
        {
          "internalType": "uint256",
          "name": "bookId",
          "type": "uint256"
        },
        {
          "internalType": "string",
          "name": "reviewURI",
          "type": "string"
        }
      ],
      "name": "mint",
      "outputs": [],
      "stateMutability": "nonpayable",
      "type": "function"
    },
    {
      "inputs": [],
      "name": "name",
      "outputs": [
        {
          "internalType": "string",
          "name": "",
          "type": "string"
        }
      ],
      "stateMutability": "view",
      "type": "function"
    },
    {
      "inputs": [
        {
          "internalType": "uint256",
          "name": "tokenId",
          "type": "uint256"
        }
      ],
      "name": "ownerOf",
      "outputs": [
        {
          "internalType": "address",
          "name": "",
          "type": "address"
        }
      ],
      "stateMutability": "view",
      "type": "function"
    },
    {
      "inputs": [
        {
          "internalType": "address",
          "name": "from",
          "type": "address"
        },
        {
          "internalType": "address",
          "name": "to",
          "type": "address"
        },
        {
          "internalType": "uint256",
          "name": "tokenId",
          "type": "uint256"
        }
      ],
      "name": "safeTransferFrom",
      "outputs": [],
      "stateMutability": "nonpayable",
      "type": "function"
    },
    {
      "inputs": [
        {
          "internalType": "address",
          "name": "from",
          "type": "address"
        },
        {
          "internalType": "address",
          "name": "to",
          "type": "address"
        },
        {
          "internalType": "uint256",
          "name": "tokenId",
          "type": "uint256"
        },
        {
          "internalType": "bytes",
          "name": "data",
          "type": "bytes"
        }
      ],
      "name": "safeTransferFrom",
      "outputs": [],
      "stateMutability": "nonpayable",
      "type": "function"
    },
    {
      "inputs": [
        {
          "internalType": "address",
          "name": "operator",
          "type": "address"
        },
        {
          "internalType": "bool",
          "name": "approved",
          "type": "bool"
        }
      ],
      "name": "setApprovalForAll",
      "outputs": [],
      "stateMutability": "nonpayable",
      "type": "function"
    },
    {
      "inputs": [
        {
          "internalType": "uint256",
          "name": "bookId",
          "type": "uint256"
        },
        {
          "internalType": "string",
          "name": "bookURI",
          "type": "string"
        }
      ],
      "name": "setBookURI",
      "outputs": [],
      "stateMutability": "nonpayable",
      "type": "function"
    },
    {
      "inputs": [
        {
          "internalType": "bytes4",
          "name": "interfaceId",
          "type": "bytes4"
        }
      ],
      "name": "supportsInterface",
      "outputs": [
        {
          "internalType": "bool",
          "name": "",
          "type": "bool"
        }
      ],
      "stateMutability": "view",
      "type": "function"
    },
    {
      "inputs": [],
      "name": "symbol",
      "outputs": [
        {
          "internalType": "string",
          "name": "",
          "type": "string"
        }
      ],
      "stateMutability": "view",
      "type": "function"
    },
    {
      "inputs": [
        {
          "internalType": "uint256",
          "name": "tokenId",
          "type": "uint256"
        }
      ],
      "name": "tokenURI",
      "outputs": [
        {
          "internalType": "string",
          "name": "",
          "type": "string"
        }
      ],
      "stateMutability": "view",
      "type": "function"
    },
    {
      "inputs": [
        {
          "internalType": "address",
          "name": "from",
          "type": "address"
        },
        {
          "internalType": "address",
          "name": "to",
          "type": "address"
        },
        {
          "internalType": "uint256",
          "name": "tokenId",
          "type": "uint256"
        }
      ],
      "name": "transferFrom",
      "outputs": [],
      "stateMutability": "nonpayable",
      "type": "function"
    }
  ],
  "bytecode": "0x608060405234801561000f575f5ffd5b5060405161162a38038061162a83398101604081905261002e916100b5565b6040518060400160405280600b81526020016a2932bb34b2bbaa37b5b2b760a91b8152506040518060400160405280600681526020016552455649455760d01b815250815f908161007f919061017a565b50600161008c828261017a565b5050600780546001600160a01b0319166001600160a01b03939093169290921790915550610234565b5f602082840312156100c5575f5ffd5b81516001600160a01b03811681146100db575f5ffd5b9392505050565b634e487b7160e01b5f52604160045260245ffd5b600181811c9082168061010a57607f821691505b60208210810361012857634e487b7160e01b5f52602260045260245ffd5b50919050565b601f82111561017557805f5260205f20601f840160051c810160208510156101535750805b601f840160051c820191505b81811015610172575f815560010161015f565b50505b505050565b81516001600160401b03811115610193576101936100e2565b6101a7816101a184546100f6565b8461012e565b6020601f8211600181146101d9575f83156101c25750848201515b5f19600385901b1c1916600184901b178455610172565b5f84815260208120601f198516915b8281101561020857878501518255602094850194600190920191016101e8565b508482101561022557868401515f19600387901b60f8161c191681555b50505050600190811b01905550565b6113e9806102415f395ff3fe608060405234801561000f575f5ffd5b50600436106100f0575f3560e01c806370a0823111610093578063a22cb46511610063578063a22cb465146101f9578063b88d4fde1461020c578063c87b56dd1461021f578063e985e9c514610232575f5ffd5b806370a08231146101aa57806377097fc8146101cb578063857ccf75146101de57806395d89b41146101f1575f5ffd5b8063095ea7b3116100ce578063095ea7b31461015c57806323b872dd1461017157806342842e0e146101845780636352211e14610197575f5ffd5b806301ffc9a7146100f457806306fdde031461011c578063081812fc14610131575b5f5ffd5b610107610102366004610f12565b610245565b60405190151581526020015b60405180910390f35b61012461026f565b6040516101139190610f5b565b61014461013f366004610f6d565b6102fe565b6040516001600160a01b039091168152602001610113565b61016f61016a366004610f98565b610325565b005b61016f61017f366004610fc2565b610334565b61016f610192366004610fc2565b6103c2565b6101446101a5366004610f6d565b6103e1565b6101bd6101b8366004611000565b6103eb565b604051908152602001610113565b61016f6101d93660046110a6565b610430565b61016f6101ec3660046110a6565b61053c565b6101246105f3565b61016f6102073660046110fd565b610602565b61016f61021a366004611138565b61060d565b61012461022d366004610f6d565b610625565b6101076102403660046111b3565b610730565b5f6001600160e01b03198216632483248360e11b148061026957506102698261075d565b92915050565b60605f805461027d906111df565b80601f01602080910402602001604051908101604052809291908181526020018280546102a9906111df565b80156102f45780601f106102cb576101008083540402835291602001916102f4565b820191905f5260205f20905b8154815290600101906020018083116102d757829003601f168201915b5050505050905090565b5f610308826107ac565b505f828152600460205260409020546001600160a01b0316610269565b6103308282336107e4565b5050565b6001600160a01b03821661036257604051633250574960e11b81525f60048201526024015b60405180910390fd5b5f61036e8383336107f1565b9050836001600160a01b0316816001600160a01b0316146103bc576040516364283d7b60e01b81526001600160a01b0380861660048301526024820184905282166044820152606401610359565b50505050565b6103dc83838360405180602001604052805f81525061060d565b505050565b5f610269826107ac565b5f6001600160a01b038216610415576040516322718ad960e21b81525f6004820152602401610359565b506001600160a01b03165f9081526003602052604090205490565b6007546040516331a9108f60e11b8152600481018490525f916001600160a01b031690636352211e90602401602060405180830381865afa158015610477573d5f5f3e3d5ffd5b505050506040513d601f19601f8201168201806040525081019061049b9190611217565b6001600160a01b0316036104e75760405162461bcd60e51b8152602060048201526013602482015272109bdbdac8191bd95cc81b9bdd08195e1a5cdd606a1b6044820152606401610359565b6040516bffffffffffffffffffffffff193360601b166020820152603481018390525f90605401604051602081830303815290604052805190602001205f1c905061053233826108e3565b6103dc8183610944565b6040516bffffffffffffffffffffffff193360601b166020820152603481018390525f9060540160408051601f1981840301815291815281516020928301205f81815260029093529120549091506001600160a01b03166001600160a01b0316336001600160a01b0316146105325760405162461bcd60e51b815260206004820152601760248201527f43616c6c6572206973206e6f7420746865206f776e65720000000000000000006044820152606401610359565b60606001805461027d906111df565b610330338383610993565b610618848484610334565b6103bc3385858585610a31565b6060610630826107ac565b505f8281526006602052604081208054610649906111df565b80601f0160208091040260200160405190810160405280929190818152602001828054610675906111df565b80156106c05780601f10610697576101008083540402835291602001916106c0565b820191905f5260205f20905b8154815290600101906020018083116106a357829003601f168201915b505050505090505f6106dc60408051602081019091525f815290565b905080515f036106ed575092915050565b81511561071f578082604051602001610707929190611249565b60405160208183030381529060405292505050919050565b61072884610b59565b949350505050565b6001600160a01b039182165f90815260056020908152604080832093909416825291909152205460ff1690565b5f6001600160e01b031982166380ac58cd60e01b148061078d57506001600160e01b03198216635b5e139f60e01b145b8061026957506301ffc9a760e01b6001600160e01b0319831614610269565b5f818152600260205260408120546001600160a01b03168061026957604051637e27328960e01b815260048101849052602401610359565b6103dc8383836001610bca565b5f828152600260205260408120546001600160a01b039081169083161561081d5761081d818486610cce565b6001600160a01b03811615610857576108385f855f5f610bca565b6001600160a01b0381165f90815260036020526040902080545f190190555b6001600160a01b03851615610885576001600160a01b0385165f908152600360205260409020805460010190555b5f8481526002602052604080822080546001600160a01b0319166001600160a01b0389811691821790925591518793918516917fddf252ad1be2c89b69c2b068fc378daa952ba7f163c4a11628f55a4df523b3ef91a4949350505050565b6001600160a01b03821661090c57604051633250574960e11b81525f6004820152602401610359565b5f61091883835f6107f1565b90506001600160a01b038116156103dc576040516339e3563760e11b81525f6004820152602401610359565b5f82815260066020526040902061095b82826112a1565b506040518281527ff8e1a15aba9398e019f0b49df1a4fde98ee17ae345cb5f6b5e2c27f5033e8ce79060200160405180910390a15050565b6001600160a01b0382166109c557604051630b61174360e31b81526001600160a01b0383166004820152602401610359565b6001600160a01b038381165f81815260056020908152604080832094871680845294825291829020805460ff191686151590811790915591519182527f17307eab39ab6107e8899845ad3d59bd9653f200f220920489ca2b5937696c31910160405180910390a3505050565b6001600160a01b0383163b15610b5257604051630a85bd0160e11b81526001600160a01b0384169063150b7a0290610a7390889088908790879060040161135c565b6020604051808303815f875af1925050508015610aad575060408051601f3d908101601f19168201909252610aaa91810190611398565b60015b610b14573d808015610ada576040519150601f19603f3d011682016040523d82523d5f602084013e610adf565b606091505b5080515f03610b0c57604051633250574960e11b81526001600160a01b0385166004820152602401610359565b805160208201fd5b6001600160e01b03198116630a85bd0160e11b14610b5057604051633250574960e11b81526001600160a01b0385166004820152602401610359565b505b5050505050565b6060610b64826107ac565b505f610b7a60408051602081019091525f815290565b90505f815111610b985760405180602001604052805f815250610bc3565b80610ba284610d32565b604051602001610bb3929190611249565b6040516020818303038152906040525b9392505050565b8080610bde57506001600160a01b03821615155b15610c9f575f610bed846107ac565b90506001600160a01b03831615801590610c195750826001600160a01b0316816001600160a01b031614155b8015610c2c5750610c2a8184610730565b155b15610c555760405163a9fbf51f60e01b81526001600160a01b0384166004820152602401610359565b8115610c9d5783856001600160a01b0316826001600160a01b03167f8c5be1e5ebec7d5bd14f71427d1e84f3dd0314c0f7b2291e5b200ac8c7c3b92560405160405180910390a45b505b50505f90815260046020526040902080546001600160a01b0319166001600160a01b0392909216919091179055565b610cd9838383610dc2565b6103dc576001600160a01b038316610d0757604051637e27328960e01b815260048101829052602401610359565b60405163177e802f60e01b81526001600160a01b038316600482015260248101829052604401610359565b60605f610d3e83610e23565b60010190505f8167ffffffffffffffff811115610d5d57610d5d61101b565b6040519080825280601f01601f191660200182016040528015610d87576020820181803683370190505b5090508181016020015b5f19016f181899199a1a9b1b9c1cb0b131b232b360811b600a86061a8153600a8504945084610d9157509392505050565b5f6001600160a01b038316158015906107285750826001600160a01b0316846001600160a01b03161480610dfb5750610dfb8484610730565b806107285750505f908152600460205260409020546001600160a01b03908116911614919050565b5f8072184f03e93ff9f4daa797ed6e38ed64bf6a1f0160401b8310610e615772184f03e93ff9f4daa797ed6e38ed64bf6a1f0160401b830492506040015b6d04ee2d6d415b85acef81000000008310610e8d576d04ee2d6d415b85acef8100000000830492506020015b662386f26fc100008310610eab57662386f26fc10000830492506010015b6305f5e1008310610ec3576305f5e100830492506008015b6127108310610ed757612710830492506004015b60648310610ee9576064830492506002015b600a83106102695760010192915050565b6001600160e01b031981168114610f0f575f5ffd5b50565b5f60208284031215610f22575f5ffd5b8135610bc381610efa565b5f81518084528060208401602086015e5f602082860101526020601f19601f83011685010191505092915050565b602081525f610bc36020830184610f2d565b5f60208284031215610f7d575f5ffd5b5035919050565b6001600160a01b0381168114610f0f575f5ffd5b5f5f60408385031215610fa9575f5ffd5b8235610fb481610f84565b946020939093013593505050565b5f5f5f60608486031215610fd4575f5ffd5b8335610fdf81610f84565b92506020840135610fef81610f84565b929592945050506040919091013590565b5f60208284031215611010575f5ffd5b8135610bc381610f84565b634e487b7160e01b5f52604160045260245ffd5b5f5f67ffffffffffffffff8411156110495761104961101b565b50604051601f19601f85018116603f0116810181811067ffffffffffffffff821117156110785761107861101b565b60405283815290508082840185101561108f575f5ffd5b838360208301375f60208583010152509392505050565b5f5f604083850312156110b7575f5ffd5b82359150602083013567ffffffffffffffff8111156110d4575f5ffd5b8301601f810185136110e4575f5ffd5b6110f38582356020840161102f565b9150509250929050565b5f5f6040838503121561110e575f5ffd5b823561111981610f84565b91506020830135801515811461112d575f5ffd5b809150509250929050565b5f5f5f5f6080858703121561114b575f5ffd5b843561115681610f84565b9350602085013561116681610f84565b925060408501359150606085013567ffffffffffffffff811115611188575f5ffd5b8501601f81018713611198575f5ffd5b6111a78782356020840161102f565b91505092959194509250565b5f5f604083850312156111c4575f5ffd5b82356111cf81610f84565b9150602083013561112d81610f84565b600181811c908216806111f357607f821691505b60208210810361121157634e487b7160e01b5f52602260045260245ffd5b50919050565b5f60208284031215611227575f5ffd5b8151610bc381610f84565b5f81518060208401855e5f93019283525090919050565b5f6107286112578386611232565b84611232565b601f8211156103dc57805f5260205f20601f840160051c810160208510156112825750805b601f840160051c820191505b81811015610b52575f815560010161128e565b815167ffffffffffffffff8111156112bb576112bb61101b565b6112cf816112c984546111df565b8461125d565b6020601f821160018114611301575f83156112ea5750848201515b5f19600385901b1c1916600184901b178455610b52565b5f84815260208120601f198516915b828110156113305787850151825560209485019460019092019101611310565b508482101561134d57868401515f19600387901b60f8161c191681555b50505050600190811b01905550565b6001600160a01b03858116825284166020820152604081018390526080606082018190525f9061138e90830184610f2d565b9695505050505050565b5f602082840312156113a8575f5ffd5b8151610bc381610efa56fea264697066735822122030f51e7c6086031010c55fbfd0a92c715653301ec531886b0af0fa0c1ae01dc364736f6c634300081c0033",
  "linkReferences": {},
  "deployedLinkReferences": {},
  "immutableReferences": {},
  "inputSourceName": "project/contracts/Review.sol",
  "buildInfoId": "solc-0_8_28-bbc98071175d0d7f8ee596f961a1987e06602e20"
}