{
  "_format": "hh3-artifact-1",
  "contractName": "Like",
  "sourceName": "contracts/Like.sol",
  "abi": [
    {
      "inputs": [
        {
          "internalType": "address",
          "name": "bookAddress",
          "type": "address"
        },
        {
          "internalType": "address",
          "name": "reviewAddress",
          "type": "address"
        },
        {
          "internalType": "uint256",
          "name": "share",
          "type": "uint256"
        }
      ],
      "stateMutability": "nonpayable",
      "type": "constructor"
    },
    {
      "inputs": [
        {
          "internalType": "address",
          "name": "spender",
          "type": "address"
        },
        {
          "internalType": "uint256",
          "name": "allowance",
          "type": "uint256"
        },
        {
          "internalType": "uint256",
          "name": "needed",
          "type": "uint256"
        }
      ],
      "name": "ERC20InsufficientAllowance",
      "type": "error"
    },
    {
      "inputs": [
        {
          "internalType": "address",
          "name": "sender",
          "type": "address"
        },
        {
          "internalType": "uint256",
          "name": "balance",
          "type": "uint256"
        },
        {
          "internalType": "uint256",
          "name": "needed",
          "type": "uint256"
        }
      ],
      "name": "ERC20InsufficientBalance",
      "type": "error"
    },
    {
      "inputs": [
        {
          "internalType": "address",
          "name": "approver",
          "type": "address"
        }
      ],
      "name": "ERC20InvalidApprover",
      "type": "error"
    },
    {
      "inputs": [
        {
          "internalType": "address",
          "name": "receiver",
          "type": "address"
        }
      ],
      "name": "ERC20InvalidReceiver",
      "type": "error"
    },
    {
      "inputs": [
        {
          "internalType": "address",
          "name": "sender",
          "type": "address"
        }
      ],
      "name": "ERC20InvalidSender",
      "type": "error"
    },
    {
      "inputs": [
        {
          "internalType": "address",
          "name": "spender",
          "type": "address"
        }
      ],
      "name": "ERC20InvalidSpender",
      "type": "error"
    },
    {
      "anonymous": false,
      "inputs": [
        {
          "indexed": true,
          "internalType": "address",
          "name": "owner",
          "type": "address"
        },
        {
          "indexed": true,
          "internalType": "address",
          "name": "spender",
          "type": "address"
        },
        {
          "indexed": false,
          "internalType": "uint256",
          "name": "value",
          "type": "uint256"
        }
      ],
      "name": "Approval",
      "type": "event"
    },
    {
      "anonymous": false,
      "inputs": [
        {
          "indexed": true,
          "internalType": "address",
          "name": "from",
          "type": "address"
        },
        {
          "indexed": true,
          "internalType": "address",
          "name": "to",
          "type": "address"
        },
        {
          "indexed": false,
          "internalType": "uint256",
          "name": "value",
          "type": "uint256"
        }
      ],
      "name": "Transfer",
      "type": "event"
    },
    {
      "inputs": [
        {
          "internalType": "address",
          "name": "owner",
          "type": "address"
        },
        {
          "internalType": "address",
          "name": "spender",
          "type": "address"
        }
      ],
      "name": "allowance",
      "outputs": [
        {
          "internalType": "uint256",
          "name": "",
          "type": "uint256"
        }
      ],
      "stateMutability": "view",
      "type": "function"
    },
    {
      "inputs": [
        {
          "internalType": "address",
          "name": "spender",
          "type": "address"
        },
        {
          "internalType": "uint256",
          "name": "value",
          "type": "uint256"
        }
      ],
      "name": "approve",
      "outputs": [
        {
          "internalType": "bool",
          "name": "",
          "type": "bool"
        }
      ],
      "stateMutability": "nonpayable",
      "type": "function"
    },
    {
      "inputs": [
        {
          "internalType": "address",
          "name": "account",
          "type": "address"
        }
      ],
      "name": "balanceOf",
      "outputs": [
        {
          "internalType": "uint256",
          "name": "",
          "type": "uint256"
        }
      ],
      "stateMutability": "view",
      "type": "function"
    },
    {
      "inputs": [],
      "name": "decimals",
      "outputs": [
        {
          "internalType": "uint8",
          "name": "",
          "type": "uint8"
        }
      ],
      "stateMutability": "view",
      "type": "function"
    },
    {
      "inputs": [
        {
          "internalType": "uint256",
          "name": "bookId",
          "type": "uint256"
        },
        {
          "internalType": "uint256",
          "name": "reviewId",
          "type": "uint256"
        },
        {
          "internalType": "uint256",
          "name": "amount",
          "type": "uint256"
        }
      ],
      "name": "distribute",
      "outputs": [],
      "stateMutability": "nonpayable",
      "type": "function"
    },
    {
      "inputs": [
        {
          "internalType": "address",
          "name": "to",
          "type": "address"
        },
        {
          "internalType": "uint256",
          "name": "amount",
          "type": "uint256"
        }
      ],
      "name": "mint",
      "outputs": [],
      "stateMutability": "nonpayable",
      "type": "function"
    },
    {
      "inputs": [],
      "name": "name",
      "outputs": [
        {
          "internalType": "string",
          "name": "",
          "type": "string"
        }
      ],
      "stateMutability": "view",
      "type": "function"
    },
    {
      "inputs": [],
      "name": "symbol",
      "outputs": [
        {
          "internalType": "string",
          "name": "",
          "type": "string"
        }
      ],
      "stateMutability": "view",
      "type": "function"
    },
    {
      "inputs": [],
      "name": "totalSupply",
      "outputs": [
        {
          "internalType": "uint256",
          "name": "",
          "type": "uint256"
        }
      ],
      "stateMutability": "view",
      "type": "function"
    },
    {
      "inputs": [
        {
          "internalType": "address",
          "name": "to",
          "type": "address"
        },
        {
          "internalType": "uint256",
          "name": "value",
          "type": "uint256"
        }
      ],
      "name": "transfer",
      "outputs": [
        {
          "internalType": "bool",
          "name": "",
          "type": "bool"
        }
      ],
      "stateMutability": "nonpayable",
      "type": "function"
    },
    {
      "inputs": [
        {
          "internalType": "address",
          "name": "from",
          "type": "address"
        },
        {
          "internalType": "address",
          "name": "to",
          "type": "address"
        },
        {
          "internalType": "uint256",
          "name": "value",
          "type": "uint256"
        }
      ],
      "name": "transferFrom",
      "outputs": [
        {
          "internalType": "bool",
          "name": "",
          "type": "bool"
        }
      ],
      "stateMutability": "nonpayable",
      "type": "function"
    }
  ],
  "bytecode": "0x608060405234801561000f575f5ffd5b50604051610c37380380610c3783398101604081905261002e916100df565b604051806040016040528060098152602001682634b5b2aa37b5b2b760b91b815250604051806040016040528060048152602001634c494b4560e01b815250816003908161007c91906101b0565b50600461008982826101b0565b5050600580546001600160a01b039586166001600160a01b03199182161790915560068054949095169316929092179092555060075561026a565b80516001600160a01b03811681146100da575f5ffd5b919050565b5f5f5f606084860312156100f1575f5ffd5b6100fa846100c4565b9250610108602085016100c4565b9150604084015190509250925092565b634e487b7160e01b5f52604160045260245ffd5b600181811c9082168061014057607f821691505b60208210810361015e57634e487b7160e01b5f52602260045260245ffd5b50919050565b601f8211156101ab57805f5260205f20601f840160051c810160208510156101895750805b601f840160051c820191505b818110156101a8575f8155600101610195565b50505b505050565b81516001600160401b038111156101c9576101c9610118565b6101dd816101d7845461012c565b84610164565b6020601f82116001811461020f575f83156101f85750848201515b5f19600385901b1c1916600184901b1784556101a8565b5f84815260208120601f198516915b8281101561023e578785015182556020948501946001909201910161021e565b508482101561025b57868401515f19600387901b60f8161c191681555b50505050600190811b01905550565b6109c0806102775f395ff3fe608060405234801561000f575f5ffd5b50600436106100a6575f3560e01c806340c10f191161006e57806340c10f191461011f57806370a082311461013457806395d89b411461015c578063a9059cbb14610164578063d2de6ec514610177578063dd62ed3e1461018a575f5ffd5b806306fdde03146100aa578063095ea7b3146100c857806318160ddd146100eb57806323b872dd146100fd578063313ce56714610110575b5f5ffd5b6100b26101c2565b6040516100bf9190610791565b60405180910390f35b6100db6100d63660046107dd565b610252565b60405190151581526020016100bf565b6002545b6040519081526020016100bf565b6100db61010b366004610807565b61026b565b604051601281526020016100bf565b61013261012d3660046107dd565b61028e565b005b6100ef610142366004610845565b6001600160a01b03165f9081526020819052604090205490565b6100b261029c565b6100db6101723660046107dd565b6102ab565b610132610185366004610867565b6102b8565b6100ef610198366004610890565b6001600160a01b039182165f90815260016020908152604080832093909416825291909152205490565b6060600380546101d1906108c7565b80601f01602080910402602001604051908101604052809291908181526020018280546101fd906108c7565b80156102485780601f1061021f57610100808354040283529160200191610248565b820191905f5260205f20905b81548152906001019060200180831161022b57829003601f168201915b5050505050905090565b5f3361025f81858561047a565b60019150505b92915050565b5f3361027885828561048c565b610283858585610508565b506001949350505050565b6102988282610565565b5050565b6060600480546101d1906108c7565b5f3361025f818585610508565b6005546040516331a9108f60e11b8152600481018590525f916001600160a01b031690636352211e90602401602060405180830381865afa1580156102ff573d5f5f3e3d5ffd5b505050506040513d601f19601f8201168201806040525081019061032391906108ff565b90506001600160a01b0381166103765760405162461bcd60e51b8152602060048201526013602482015272109bdbdac8191bd95cc81b9bdd08195e1a5cdd606a1b60448201526064015b60405180910390fd5b6006546040516331a9108f60e11b8152600481018590525f916001600160a01b031690636352211e90602401602060405180830381865afa1580156103bd573d5f5f3e3d5ffd5b505050506040513d601f19601f820116820180604052508101906103e191906108ff565b90506001600160a01b0381166104315760405162461bcd60e51b815260206004820152601560248201527414995d9a595dc8191bd95cc81b9bdd08195e1a5cdd605a1b604482015260640161036d565b5f606460075485610442919061092e565b61044c9190610945565b90505f6104598286610964565b9050610466338584610508565b610471338483610508565b50505050505050565b6104878383836001610599565b505050565b6001600160a01b038381165f908152600160209081526040808320938616835292905220545f1981101561050257818110156104f457604051637dc7a0d960e11b81526001600160a01b0384166004820152602481018290526044810183905260640161036d565b61050284848484035f610599565b50505050565b6001600160a01b03831661053157604051634b637e8f60e11b81525f600482015260240161036d565b6001600160a01b03821661055a5760405163ec442f0560e01b81525f600482015260240161036d565b61048783838361066b565b6001600160a01b03821661058e5760405163ec442f0560e01b81525f600482015260240161036d565b6102985f838361066b565b6001600160a01b0384166105c25760405163e602df0560e01b81525f600482015260240161036d565b6001600160a01b0383166105eb57604051634a1406b160e11b81525f600482015260240161036d565b6001600160a01b038085165f908152600160209081526040808320938716835292905220829055801561050257826001600160a01b0316846001600160a01b03167f8c5be1e5ebec7d5bd14f71427d1e84f3dd0314c0f7b2291e5b200ac8c7c3b9258460405161065d91815260200190565b60405180910390a350505050565b6001600160a01b038316610695578060025f82825461068a9190610977565b909155506107059050565b6001600160a01b0383165f90815260208190526040902054818110156106e75760405163391434e360e21b81526001600160a01b0385166004820152602481018290526044810183905260640161036d565b6001600160a01b0384165f9081526020819052604090209082900390555b6001600160a01b0382166107215760028054829003905561073f565b6001600160a01b0382165f9081526020819052604090208054820190555b816001600160a01b0316836001600160a01b03167fddf252ad1be2c89b69c2b068fc378daa952ba7f163c4a11628f55a4df523b3ef8360405161078491815260200190565b60405180910390a3505050565b602081525f82518060208401528060208501604085015e5f604082850101526040601f19601f83011684010191505092915050565b6001600160a01b03811681146107da575f5ffd5b50565b5f5f604083850312156107ee575f5ffd5b82356107f9816107c6565b946020939093013593505050565b5f5f5f60608486031215610819575f5ffd5b8335610824816107c6565b92506020840135610834816107c6565b929592945050506040919091013590565b5f60208284031215610855575f5ffd5b8135610860816107c6565b9392505050565b5f5f5f60608486031215610879575f5ffd5b505081359360208301359350604090920135919050565b5f5f604083850312156108a1575f5ffd5b82356108ac816107c6565b915060208301356108bc816107c6565b809150509250929050565b600181811c908216806108db57607f821691505b6020821081036108f957634e487b7160e01b5f52602260045260245ffd5b50919050565b5f6020828403121561090f575f5ffd5b8151610860816107c6565b634e487b7160e01b5f52601160045260245ffd5b80820281158282048414176102655761026561091a565b5f8261095f57634e487b7160e01b5f52601260045260245ffd5b500490565b818103818111156102655761026561091a565b808201808211156102655761026561091a56fea2646970667358221220e648fcb098495782d9d1662bc8b0bbd8c042388a3a3b4d96f41ad2c9391fa9cb64736f6c634300081c0033",
  "linkReferences": {},
  "deployedLinkReferences": {},
  "immutableReferences": {},
  "inputSourceName": "project/contracts/Like.sol",
  "buildInfoId": "solc-0_8_28-0735b5323a61fe5dcbbf4fe1f504589637c96080"
}